{
  "_format": "hh-sol-artifact-1",
  "contractName": "SocialToken",
  "sourceName": "contracts/token/social/SocialToken.sol",
  "abi": [
    {
      "inputs": [
        {
          "components": [
            {
              "internalType": "address",
              "name": "creator",
              "type": "address"
            },
            {
              "internalType": "address",
              "name": "usdcCollateral",
              "type": "address"
            },
            {
              "internalType": "address",
              "name": "usdtCollateral",
              "type": "address"
            },
            {
              "internalType": "uint256",
              "name": "maxSupply",
              "type": "uint256"
            },
            {
              "internalType": "uint256",
              "name": "slope",
              "type": "uint256"
            },
            {
              "internalType": "string",
              "name": "name",
              "type": "string"
            },
            {
              "internalType": "string",
              "name": "symbol",
              "type": "string"
            }
          ],
          "internalType": "struct ISocialToken.CreateData",
          "name": "data",
          "type": "tuple"
        }
      ],
      "stateMutability": "nonpayable",
      "type": "constructor"
    },
    {
      "anonymous": false,
      "inputs": [
        {
          "indexed": true,
          "internalType": "address",
          "name": "owner",
          "type": "address"
        },
        {
          "indexed": true,
          "internalType": "address",
          "name": "spender",
          "type": "address"
        },
        {
          "indexed": false,
          "internalType": "uint256",
          "name": "value",
          "type": "uint256"
        }
      ],
      "name": "Approval",
      "type": "event"
    },
    {
      "anonymous": false,
      "inputs": [
        {
          "indexed": true,
          "internalType": "address",
          "name": "burner",
          "type": "address"
        },
        {
          "indexed": true,
          "internalType": "address",
          "name": "tokenAddress",
          "type": "address"
        },
        {
          "indexed": true,
          "internalType": "uint256",
          "name": "burnPrice",
          "type": "uint256"
        },
        {
          "indexed": false,
          "internalType": "uint256",
          "name": "amount",
          "type": "uint256"
        },
        {
          "indexed": false,
          "internalType": "uint256",
          "name": "tokenSupply",
          "type": "uint256"
        },
        {
          "indexed": false,
          "internalType": "uint256",
          "name": "reserve",
          "type": "uint256"
        }
      ],
      "name": "Burned",
      "type": "event"
    },
    {
      "anonymous": false,
      "inputs": [
        {
          "indexed": true,
          "internalType": "address",
          "name": "minter",
          "type": "address"
        },
        {
          "indexed": true,
          "internalType": "address",
          "name": "tokenAddress",
          "type": "address"
        },
        {
          "indexed": true,
          "internalType": "uint256",
          "name": "mintPrice",
          "type": "uint256"
        },
        {
          "indexed": false,
          "internalType": "uint256",
          "name": "amount",
          "type": "uint256"
        },
        {
          "indexed": false,
          "internalType": "uint256",
          "name": "tokenSupply",
          "type": "uint256"
        },
        {
          "indexed": false,
          "internalType": "uint256",
          "name": "royaltyPaid",
          "type": "uint256"
        },
        {
          "indexed": false,
          "internalType": "uint256",
          "name": "reserve",
          "type": "uint256"
        }
      ],
      "name": "Minted",
      "type": "event"
    },
    {
      "anonymous": false,
      "inputs": [
        {
          "indexed": true,
          "internalType": "address",
          "name": "previousOwner",
          "type": "address"
        },
        {
          "indexed": true,
          "internalType": "address",
          "name": "newOwner",
          "type": "address"
        }
      ],
      "name": "OwnershipTransferred",
      "type": "event"
    },
    {
      "anonymous": false,
      "inputs": [
        {
          "indexed": true,
          "internalType": "address",
          "name": "from",
          "type": "address"
        },
        {
          "indexed": true,
          "internalType": "address",
          "name": "to",
          "type": "address"
        },
        {
          "indexed": false,
          "internalType": "uint256",
          "name": "value",
          "type": "uint256"
        }
      ],
      "name": "Transfer",
      "type": "event"
    },
    {
      "inputs": [
        {
          "internalType": "address",
          "name": "owner",
          "type": "address"
        },
        {
          "internalType": "address",
          "name": "spender",
          "type": "address"
        }
      ],
      "name": "allowance",
      "outputs": [
        {
          "internalType": "uint256",
          "name": "",
          "type": "uint256"
        }
      ],
      "stateMutability": "view",
      "type": "function"
    },
    {
      "inputs": [
        {
          "internalType": "address",
          "name": "spender",
          "type": "address"
        },
        {
          "internalType": "uint256",
          "name": "amount",
          "type": "uint256"
        }
      ],
      "name": "approve",
      "outputs": [
        {
          "internalType": "bool",
          "name": "",
          "type": "bool"
        }
      ],
      "stateMutability": "nonpayable",
      "type": "function"
    },
    {
      "inputs": [
        {
          "internalType": "address",
          "name": "account",
          "type": "address"
        }
      ],
      "name": "balanceOf",
      "outputs": [
        {
          "internalType": "uint256",
          "name": "",
          "type": "uint256"
        }
      ],
      "stateMutability": "view",
      "type": "function"
    },
    {
      "inputs": [
        {
          "internalType": "uint256",
          "name": "amount",
          "type": "uint256"
        }
      ],
      "name": "burn",
      "outputs": [],
      "stateMutability": "nonpayable",
      "type": "function"
    },
    {
      "inputs": [],
      "name": "creator",
      "outputs": [
        {
          "internalType": "address",
          "name": "",
          "type": "address"
        }
      ],
      "stateMutability": "view",
      "type": "function"
    },
    {
      "inputs": [],
      "name": "decimals",
      "outputs": [
        {
          "internalType": "uint8",
          "name": "",
          "type": "uint8"
        }
      ],
      "stateMutability": "view",
      "type": "function"
    },
    {
      "inputs": [
        {
          "internalType": "address",
          "name": "spender",
          "type": "address"
        },
        {
          "internalType": "uint256",
          "name": "subtractedValue",
          "type": "uint256"
        }
      ],
      "name": "decreaseAllowance",
      "outputs": [
        {
          "internalType": "bool",
          "name": "",
          "type": "bool"
        }
      ],
      "stateMutability": "nonpayable",
      "type": "function"
    },
    {
      "inputs": [
        {
          "internalType": "uint256",
          "name": "amount",
          "type": "uint256"
        }
      ],
      "name": "getBurnPrice",
      "outputs": [
        {
          "internalType": "uint256",
          "name": "",
          "type": "uint256"
        }
      ],
      "stateMutability": "view",
      "type": "function"
    },
    {
      "inputs": [
        {
          "internalType": "uint256",
          "name": "fee",
          "type": "uint256"
        }
      ],
      "name": "getCreatorFee",
      "outputs": [
        {
          "internalType": "uint256",
          "name": "",
          "type": "uint256"
        }
      ],
      "stateMutability": "pure",
      "type": "function"
    },
    {
      "inputs": [
        {
          "internalType": "uint256",
          "name": "amount",
          "type": "uint256"
        }
      ],
      "name": "getMintPrice",
      "outputs": [
        {
          "internalType": "uint256",
          "name": "",
          "type": "uint256"
        }
      ],
      "stateMutability": "view",
      "type": "function"
    },
    {
      "inputs": [
        {
          "internalType": "address",
          "name": "spender",
          "type": "address"
        },
        {
          "internalType": "uint256",
          "name": "addedValue",
          "type": "uint256"
        }
      ],
      "name": "increaseAllowance",
      "outputs": [
        {
          "internalType": "bool",
          "name": "",
          "type": "bool"
        }
      ],
      "stateMutability": "nonpayable",
      "type": "function"
    },
    {
      "inputs": [],
      "name": "maxSupply",
      "outputs": [
        {
          "internalType": "uint256",
          "name": "",
          "type": "uint256"
        }
      ],
      "stateMutability": "view",
      "type": "function"
    },
    {
      "inputs": [
        {
          "internalType": "uint256",
          "name": "amount",
          "type": "uint256"
        },
        {
          "internalType": "address",
          "name": "collateralAddress",
          "type": "address"
        }
      ],
      "name": "mint",
      "outputs": [],
      "stateMutability": "nonpayable",
      "type": "function"
    },
    {
      "inputs": [],
      "name": "name",
      "outputs": [
        {
          "internalType": "string",
          "name": "",
          "type": "string"
        }
      ],
      "stateMutability": "view",
      "type": "function"
    },
    {
      "inputs": [],
      "name": "owner",
      "outputs": [
        {
          "internalType": "address",
          "name": "",
          "type": "address"
        }
      ],
      "stateMutability": "view",
      "type": "function"
    },
    {
      "inputs": [],
      "name": "renounceOwnership",
      "outputs": [],
      "stateMutability": "nonpayable",
      "type": "function"
    },
    {
      "inputs": [],
      "name": "reserve",
      "outputs": [
        {
          "internalType": "uint256",
          "name": "",
          "type": "uint256"
        }
      ],
      "stateMutability": "view",
      "type": "function"
    },
    {
      "inputs": [],
      "name": "slope",
      "outputs": [
        {
          "internalType": "uint256",
          "name": "",
          "type": "uint256"
        }
      ],
      "stateMutability": "view",
      "type": "function"
    },
    {
      "inputs": [],
      "name": "symbol",
      "outputs": [
        {
          "internalType": "string",
          "name": "",
          "type": "string"
        }
      ],
      "stateMutability": "view",
      "type": "function"
    },
    {
      "inputs": [],
      "name": "totalSupply",
      "outputs": [
        {
          "internalType": "uint256",
          "name": "",
          "type": "uint256"
        }
      ],
      "stateMutability": "view",
      "type": "function"
    },
    {
      "inputs": [
        {
          "internalType": "address",
          "name": "to",
          "type": "address"
        },
        {
          "internalType": "uint256",
          "name": "amount",
          "type": "uint256"
        }
      ],
      "name": "transfer",
      "outputs": [
        {
          "internalType": "bool",
          "name": "",
          "type": "bool"
        }
      ],
      "stateMutability": "nonpayable",
      "type": "function"
    },
    {
      "inputs": [
        {
          "internalType": "address",
          "name": "from",
          "type": "address"
        },
        {
          "internalType": "address",
          "name": "to",
          "type": "address"
        },
        {
          "internalType": "uint256",
          "name": "amount",
          "type": "uint256"
        }
      ],
      "name": "transferFrom",
      "outputs": [
        {
          "internalType": "bool",
          "name": "",
          "type": "bool"
        }
      ],
      "stateMutability": "nonpayable",
      "type": "function"
    },
    {
      "inputs": [
        {
          "internalType": "address",
          "name": "newOwner",
          "type": "address"
        }
      ],
      "name": "transferOwnership",
      "outputs": [],
      "stateMutability": "nonpayable",
      "type": "function"
    },
    {
      "inputs": [
        {
          "internalType": "address",
          "name": "_creator",
          "type": "address"
        }
      ],
      "name": "updateCreator",
      "outputs": [],
      "stateMutability": "nonpayable",
      "type": "function"
    },
    {
      "inputs": [],
      "name": "usdcCollateral",
      "outputs": [
        {
          "internalType": "contract IERC20",
          "name": "",
          "type": "address"
        }
      ],
      "stateMutability": "view",
      "type": "function"
    },
    {
      "inputs": [],
      "name": "usdtCollateral",
      "outputs": [
        {
          "internalType": "contract IERC20",
          "name": "",
          "type": "address"
        }
      ],
      "stateMutability": "view",
      "type": "function"
    },
    {
      "inputs": [],
      "name": "withdraw",
      "outputs": [],
      "stateMutability": "nonpayable",
      "type": "function"
    }
  ],
  "bytecode": "0x60806040523480156200001157600080fd5b5060405162001e6d38038062001e6d83398101604081905262000034916200027d565b60a081015160c08201516200004933620000d9565b81516200005e90600490602085019062000129565b5080516200007490600590602084019062000129565b50506001600655508051600780546001600160a01b039283166001600160a01b0319918216179091556020830151600880549184169183169190911790556040830151600980549190931691161790556080810151600a5560600151600b5562000411565b600080546001600160a01b038381166001600160a01b0319831681178455604051919092169283917f8be0079c531659141344cd1fd0a4f28419497f9722a3daafe3b4186f6b6457e09190a35050565b8280546200013790620003be565b90600052602060002090601f0160209004810192826200015b5760008555620001a6565b82601f106200017657805160ff1916838001178555620001a6565b82800160010185558215620001a6579182015b82811115620001a657825182559160200191906001019062000189565b50620001b4929150620001b8565b5090565b5b80821115620001b45760008155600101620001b9565b80516001600160a01b0381168114620001e757600080fd5b919050565b600082601f830112620001fd578081fd5b81516001600160401b03811115620002195762000219620003fb565b60206200022f601f8301601f191682016200038b565b828152858284870101111562000243578384fd5b835b838110156200026257858101830151828201840152820162000245565b838111156200027357848385840101525b5095945050505050565b6000602082840312156200028f578081fd5b81516001600160401b0380821115620002a6578283fd5b9083019060e08286031215620002ba578283fd5b620002c462000360565b620002cf83620001cf565b8152620002df60208401620001cf565b6020820152620002f260408401620001cf565b6040820152606083015160608201526080830151608082015260a0830151828111156200031d578485fd5b6200032b87828601620001ec565b60a08301525060c08301518281111562000343578485fd5b6200035187828601620001ec565b60c08301525095945050505050565b60405160e081016001600160401b0381118282101715620003855762000385620003fb565b60405290565b604051601f8201601f191681016001600160401b0381118282101715620003b657620003b6620003fb565b604052919050565b600181811c90821680620003d357607f821691505b60208210811415620003f557634e487b7160e01b600052602260045260246000fd5b50919050565b634e487b7160e01b600052604160045260246000fd5b611a4c80620004216000396000f3fe608060405234801561001057600080fd5b50600436106101a95760003560e01c8063559e775b116100f9578063a457c2d711610097578063d5abeb0111610071578063d5abeb011461036e578063dd62ed3e14610377578063f1af9d3f146103b0578063f2fde38b146103c357600080fd5b8063a457c2d71461033f578063a9059cbb14610352578063cd3293de1461036557600080fd5b806383caf275116100d357806383caf2751461030a5780638da5cb5b1461031357806394bf804d1461032457806395d89b411461033757600080fd5b8063559e775b146102c657806370a08231146102d9578063715018a61461030257600080fd5b806323b872dd11610166578063395093511161014057806339509351146102855780633ccfd60b1461029857806342966c68146102a0578063521fb171146102b357600080fd5b806323b872dd14610250578063313ce56714610263578063346fd5dd1461027257600080fd5b806302d05d3f146101ae57806306fdde03146101de578063095ea7b3146101f357806312e6e50e1461021657806318160ddd146102295780631a2084f11461023b575b600080fd5b6007546101c1906001600160a01b031681565b6040516001600160a01b0390911681526020015b60405180910390f35b6101e66103d6565b6040516101d5919061186e565b6102066102013660046117b7565b610468565b60405190151581526020016101d5565b6009546101c1906001600160a01b031681565b6003545b6040519081526020016101d5565b61024e610249366004611730565b610480565b005b61020661025e36600461177c565b61051d565b604051601281526020016101d5565b61022d610280366004611800565b610543565b6102066102933660046117b7565b61060f565b61024e61064e565b61024e6102ae366004611800565b61074d565b6008546101c1906001600160a01b031681565b61022d6102d4366004611800565b610956565b61022d6102e7366004611730565b6001600160a01b031660009081526001602052604090205490565b61024e6109f9565b61022d600a5481565b6000546001600160a01b03166101c1565b61024e610332366004611830565b610a2f565b6101e6610cac565b61020661034d3660046117b7565b610cbb565b6102066103603660046117b7565b610d58565b61022d600c5481565b61022d600b5481565b61022d61038536600461174a565b6001600160a01b03918216600090815260026020908152604080832093909416825291909152205490565b61022d6103be366004611800565b610d66565b61024e6103d1366004611730565b610d85565b6060600480546103e5906119ee565b80601f0160208091040260200160405190810160405280929190818152602001828054610411906119ee565b801561045e5780601f106104335761010080835404028352916020019161045e565b820191906000526020600020905b81548152906001019060200180831161044157829003601f168201915b5050505050905090565b600033610476818585610e20565b5060019392505050565b6000546001600160a01b031633146104b35760405162461bcd60e51b81526004016104aa906118e8565b60405180910390fd5b6001600160a01b0381166104fb5760405162461bcd60e51b815260206004820152600f60248201526e496e76616c6964206164647265737360881b60448201526064016104aa565b600780546001600160a01b0319166001600160a01b0392909216919091179055565b60003361052b858285610f44565b610536858585610fd6565b60019150505b9392505050565b60008061054f60035490565b9050600081116105a15760405162461bcd60e51b815260206004820152601b60248201527f536f6369616c546f6b656e3a20737570706c79206973207a65726f000000000060448201526064016104aa565b808311156105c15760405162461bcd60e51b81526004016104aa906118a1565b60006105cd84836119ab565b600c549091506105dd838061198c565b826105e8818461198c565b6105f2919061198c565b6105fc919061196c565b61060690826119ab565b95945050505050565b3360008181526002602090815260408083206001600160a01b03871684529091528120549091906104769082908690610649908790611954565b610e20565b6000546001600160a01b031633146106785760405162461bcd60e51b81526004016104aa906118e8565b6002600654141561069b5760405162461bcd60e51b81526004016104aa9061191d565b6002600655600854600c546040516370a0823160e01b81523060048201526001600160a01b03909216916000919083906370a082319060240160206040518083038186803b1580156106ec57600080fd5b505afa158015610700573d6000803e3d6000fd5b505050506040513d601f19601f820116820180604052508101906107249190611818565b61072e91906119ab565b90506107446001600160a01b03831633836111a4565b50506001600655565b600260065414156107705760405162461bcd60e51b81526004016104aa9061191d565b6002600655600061078060035490565b9050600081116107d25760405162461bcd60e51b815260206004820152601b60248201527f536f6369616c546f6b656e3a20737570706c79206973207a65726f000000000060448201526064016104aa565b808211156107f25760405162461bcd60e51b81526004016104aa906118a1565b60006107fd83610543565b905080600c600082825461081191906119ab565b909155506108219050338461120c565b6008546040516370a0823160e01b81523060048201526000916001600160a01b0316906370a082319060240160206040518083038186803b15801561086557600080fd5b505afa158015610879573d6000803e3d6000fd5b505050506040513d601f19601f8201168201806040525081019061089d9190611818565b9050818110156108e4576008546108be906001600160a01b031633836111a4565b6108df336108cc83856119ab565b6009546001600160a01b031691906111a4565b6108fb565b6008546108fb906001600160a01b031633846111a4565b8130337f11f4de08a32f284936a09bf63cd47de027b89c62c6b1b52bd012967e529a37848761092a81896119ab565b600c546040805193845260208401929092529082015260600160405180910390a4505060016006555050565b60008061096260035490565b905060006109708483611954565b600c5490915082156109b55780610987848061198c565b83610992818561198c565b61099c919061198c565b6109a6919061196c565b6109b091906119ab565b610606565b73af298d050e4395d69670b12b7f4100000000000060028687600a546109db919061198c565b6109e5919061198c565b6109ef919061196c565b610606919061196c565b6000546001600160a01b03163314610a235760405162461bcd60e51b81526004016104aa906118e8565b610a2d600061135a565b565b60026006541415610a525760405162461bcd60e51b81526004016104aa9061191d565b600260065581610aa45760405162461bcd60e51b815260206004820152601b60248201527f536f6369616c546f6b656e3a20616d6f756e74206973207a65726f000000000060448201526064016104aa565b6000610aaf83610956565b905060008111610b015760405162461bcd60e51b815260206004820152601b60248201527f536f6369616c546f6b656e3a20616d6f756e7420746f6f206c6f77000000000060448201526064016104aa565b6000610b0c60035490565b600b54909150610b1c8583611954565b1115610b6a5760405162461bcd60e51b815260206004820152601d60248201527f536f6369616c546f6b656e3a20616d6f756e7420746f6f206c6172676500000060448201526064016104aa565b60006064610b7984600f61198c565b610b83919061196c565b90506000610b9082610d66565b9050610b9c82856119ab565b600c6000828254610bad9190611954565b90915550610bbd905033876113aa565b6008546009546001600160a01b039182169187811691161415610be857506009546001600160a01b03165b610bfd6001600160a01b038216333088611489565b600754610c17906001600160a01b038381169116846111a4565b610c47610c2c6000546001600160a01b031690565b610c3684866119ab565b6001600160a01b03841691906111a4565b8430337fff1b99c8afce899f46662ffc7045877162dd660b4cacca896efb18ce5e64c3fa8a610c76818a611954565b600c54604080519384526020840192909252908201889052606082015260800160405180910390a4505060016006555050505050565b6060600580546103e5906119ee565b3360008181526002602090815260408083206001600160a01b038716845290915281205490919083811015610d405760405162461bcd60e51b815260206004820152602560248201527f45524332303a2064656372656173656420616c6c6f77616e63652062656c6f77604482015264207a65726f60d81b60648201526084016104aa565b610d4d8286868403610e20565b506001949350505050565b600033610476818585610fd6565b6000600a610d7583600861198c565b610d7f919061196c565b92915050565b6000546001600160a01b03163314610daf5760405162461bcd60e51b81526004016104aa906118e8565b6001600160a01b038116610e145760405162461bcd60e51b815260206004820152602660248201527f4f776e61626c653a206e6577206f776e657220697320746865207a65726f206160448201526564647265737360d01b60648201526084016104aa565b610e1d8161135a565b50565b6001600160a01b038316610e825760405162461bcd60e51b8152602060048201526024808201527f45524332303a20617070726f76652066726f6d20746865207a65726f206164646044820152637265737360e01b60648201526084016104aa565b6001600160a01b038216610ee35760405162461bcd60e51b815260206004820152602260248201527f45524332303a20617070726f766520746f20746865207a65726f206164647265604482015261737360f01b60648201526084016104aa565b6001600160a01b0383811660008181526002602090815260408083209487168084529482529182902085905590518481527f8c5be1e5ebec7d5bd14f71427d1e84f3dd0314c0f7b2291e5b200ac8c7c3b925910160405180910390a3505050565b6001600160a01b038381166000908152600260209081526040808320938616835292905220546000198114610fd05781811015610fc35760405162461bcd60e51b815260206004820152601d60248201527f45524332303a20696e73756666696369656e7420616c6c6f77616e636500000060448201526064016104aa565b610fd08484848403610e20565b50505050565b6001600160a01b03831661103a5760405162461bcd60e51b815260206004820152602560248201527f45524332303a207472616e736665722066726f6d20746865207a65726f206164604482015264647265737360d81b60648201526084016104aa565b6001600160a01b03821661109c5760405162461bcd60e51b815260206004820152602360248201527f45524332303a207472616e7366657220746f20746865207a65726f206164647260448201526265737360e81b60648201526084016104aa565b6001600160a01b038316600090815260016020526040902054818110156111145760405162461bcd60e51b815260206004820152602660248201527f45524332303a207472616e7366657220616d6f756e7420657863656564732062604482015265616c616e636560d01b60648201526084016104aa565b6001600160a01b0380851660009081526001602052604080822085850390559185168152908120805484929061114b908490611954565b92505081905550826001600160a01b0316846001600160a01b03167fddf252ad1be2c89b69c2b068fc378daa952ba7f163c4a11628f55a4df523b3ef8460405161119791815260200190565b60405180910390a3610fd0565b6040516001600160a01b03831660248201526044810182905261120790849063a9059cbb60e01b906064015b60408051601f198184030181529190526020810180516001600160e01b03166001600160e01b0319909316929092179091526114c1565b505050565b6001600160a01b03821661126c5760405162461bcd60e51b815260206004820152602160248201527f45524332303a206275726e2066726f6d20746865207a65726f206164647265736044820152607360f81b60648201526084016104aa565b6001600160a01b038216600090815260016020526040902054818110156112e05760405162461bcd60e51b815260206004820152602260248201527f45524332303a206275726e20616d6f756e7420657863656564732062616c616e604482015261636560f01b60648201526084016104aa565b6001600160a01b038316600090815260016020526040812083830390556003805484929061130f9084906119ab565b90915550506040518281526000906001600160a01b038516907fddf252ad1be2c89b69c2b068fc378daa952ba7f163c4a11628f55a4df523b3ef9060200160405180910390a3505050565b600080546001600160a01b038381166001600160a01b0319831681178455604051919092169283917f8be0079c531659141344cd1fd0a4f28419497f9722a3daafe3b4186f6b6457e09190a35050565b6001600160a01b0382166114005760405162461bcd60e51b815260206004820152601f60248201527f45524332303a206d696e7420746f20746865207a65726f20616464726573730060448201526064016104aa565b80600360008282546114129190611954565b90915550506001600160a01b0382166000908152600160205260408120805483929061143f908490611954565b90915550506040518181526001600160a01b038316906000907fddf252ad1be2c89b69c2b068fc378daa952ba7f163c4a11628f55a4df523b3ef9060200160405180910390a35050565b6040516001600160a01b0380851660248301528316604482015260648101829052610fd09085906323b872dd60e01b906084016111d0565b6000611516826040518060400160405280602081526020017f5361666545524332303a206c6f772d6c6576656c2063616c6c206661696c6564815250856001600160a01b03166115939092919063ffffffff16565b805190915015611207578080602001905181019061153491906117e0565b6112075760405162461bcd60e51b815260206004820152602a60248201527f5361666545524332303a204552433230206f7065726174696f6e20646964206e6044820152691bdd081cdd58d8d9595960b21b60648201526084016104aa565b60606115a284846000856115aa565b949350505050565b60608247101561160b5760405162461bcd60e51b815260206004820152602660248201527f416464726573733a20696e73756666696369656e742062616c616e636520666f6044820152651c8818d85b1b60d21b60648201526084016104aa565b6001600160a01b0385163b6116625760405162461bcd60e51b815260206004820152601d60248201527f416464726573733a2063616c6c20746f206e6f6e2d636f6e747261637400000060448201526064016104aa565b600080866001600160a01b0316858760405161167e9190611852565b60006040518083038185875af1925050503d80600081146116bb576040519150601f19603f3d011682016040523d82523d6000602084013e6116c0565b606091505b50915091506116d08282866116db565b979650505050505050565b606083156116ea57508161053c565b8251156116fa5782518084602001fd5b8160405162461bcd60e51b81526004016104aa919061186e565b80356001600160a01b038116811461172b57600080fd5b919050565b600060208284031215611741578081fd5b61053c82611714565b6000806040838503121561175c578081fd5b61176583611714565b915061177360208401611714565b90509250929050565b600080600060608486031215611790578081fd5b61179984611714565b92506117a760208501611714565b9150604084013590509250925092565b600080604083850312156117c9578182fd5b6117d283611714565b946020939093013593505050565b6000602082840312156117f1578081fd5b8151801515811461053c578182fd5b600060208284031215611811578081fd5b5035919050565b600060208284031215611829578081fd5b5051919050565b60008060408385031215611842578182fd5b8235915061177360208401611714565b600082516118648184602087016119c2565b9190910192915050565b602081526000825180602084015261188d8160408501602087016119c2565b601f01601f19169190910160400192915050565b60208082526027908201527f536f6369616c546f6b656e3a20616d6f756e742067726561746572207468616e60408201526620737570706c7960c81b606082015260800190565b6020808252818101527f4f776e61626c653a2063616c6c6572206973206e6f7420746865206f776e6572604082015260600190565b6020808252601f908201527f5265656e7472616e637947756172643a207265656e7472616e742063616c6c00604082015260600190565b6000821982111561196757611967611a29565b500190565b60008261198757634e487b7160e01b81526012600452602481fd5b500490565b60008160001904831182151516156119a6576119a6611a29565b500290565b6000828210156119bd576119bd611a29565b500390565b60005b838110156119dd5781810151838201526020016119c5565b83811115610fd05750506000910152565b600181811c90821680611a0257607f821691505b60208210811415611a2357634e487b7160e01b600052602260045260246000fd5b50919050565b634e487b7160e01b600052601160045260246000fdfea164736f6c6343000804000a",
  "linkReferences": {},
  "deployedLinkReferences": {}
}